:100000000C9440000C9468000C9468000C946800F8
:100010000C9468000C9468000C9468000C946800C0
:100020000C9468000C9468000C9468000C946800B0
:100030000C9468000C94C2000C9468000C94680046
:100040000C9468000C9468000C9468000C94680090
:100050000C9468000C9468000C9468000C94680080
:100060000C9468000C9468000C9468000C94680070
:100070000C9468000C9468000C94680040066D06AF
:1000800011241FBECFEFD0E1DEBFCDBF12E0A0E054
:10009000B1E0E4E6F5E102C005900D92AE36B1079D
:1000A000D9F712E0AEE6B2E001C01D92A93EB10759
:1000B000E1F710E0CFE3D0E004C02197FE010E94F9
:1000C0006E06CE33D107C9F70E9439060C94A50AF3
:1000D0000C94000081B1896081B981E082B984B15A
:1000E0008E6184B985B1856085B985ED92E00E9405
:1000F0004A01E091D702F091D80260E070E080E020
:1001000090E009958091000190910101FC0101901E
:100110000020E9F73197BF01681B790BE091DD0200
:10012000F091DE0209950EC048E350E06CE271E008
:1001300087E391E00E94DC0587EA91E60197F1F7F9
:1001400000C00000E091D902F091DA0209958F3FDA
:10015000C1F08091D5029091D602892B29F7809128
:10016000000190910101FC0101900020E9F7319715
:10017000BF01681B790BE091DD02F091DE02099569
:10018000DBCF08951F920F920FB60F9211242F9379
:100190003F934F935F936F938F939F93F8948091C6
:1001A0007102909172022091730230917402409119
:1001B0006F02509170024F5F5F4F483E63E05607F9
:1001C000C9F0909372028093710250937002409331
:1001D0006F02309374022093730278949F918F91F1
:1001E0006F915F914F913F912F910F900FBE0F90A4
:1001F0001F9018950196A9014F5F5F4F8C339105B1
:1002000049F09093720280937102109270021092E2
:100210006F02E3CF1092720210927102109270027C
:1002200010926F025093740240937302D6CFE1E8AC
:10023000F0E080818960808387EE93E0909389006D
:1002400080938800EFE6F0E080818260808378947C
:100250000895CF93DF9300D000D000D0CDB7DEB7A4
:1002600086E0EFE6F2E0DE01119601900D928A95AC
:10027000E1F729813A814B815C816D817E8180E04B
:1002800090E026960FB6F894DEBF0FBECDBFDF918B
:10029000CF910895CF93DF930097B9F0EC010E94BE
:1002A000680184E090E0998388838DE994E09B83E2
:1002B0008A838DE691E09D838C838FE695E09F8312
:1002C0008E838FEB93E099878887DF91CF91089594
:1002D0009093D4028093D30208956F927F928F926D
:1002E0009F92AF92BF92CF92DF92EF92FF920F93C5
:1002F0001F93CF93DF93BFB6F894189939C0139822
:100300009EE1D92E22EBE22E21E0F22EC4ECD1E0C8
:100310000EEB11E03EE7C32E189929C08FEF0E9423
:1003200014068E37B1F1909177029923A9F3943195
:1003300009F454C0923009F44CC020917602222373
:1003400031F0215020937602222309F44FC0E0912E
:10035000780221E0290F20937702DE9EF00111241C
:10036000E90FF11DE758FD4F8083189BD7CF139AF3
:10037000BFBE80E0DF91CF911F910F91FF90EF9072
:10038000DF90CF90BF90AF909F908F907F906F90B5
:100390000895209178022330A1F030E0E0917702B7
:1003A00041E04E0F8E2F90E040937702D29EF001F5
:1003B000D39EF00D1124E80FF91FE758FD4FC082BE
:1003C000ABCF1092780280E090E041E020E030E096
:1003D000EBCF21E0280F20937602B9CF80917802ED
:1003E0008F5F809378021092770296CF60907802A8
:1003F000D69C90011124F901E90FF11DE758FD4F3A
:100400008083C90187589D4F3C01FC018180912C5C
:10041000982C88248281880E911CF4E08F0E911C08
:10042000FF92EF920E94AA070F900F9081149104FF
:10043000B9F0A12C80E090E0F301E80FF91F808172
:100440001F928F93DF93CF930E94AA07A3948A2DC4
:1004500090E00F900F900F900F908815990560F322
:100460009F928F921F930F930E94AA078091780208
:100470008F5F80937802109277020F900F900F9009
:100480000F904ACFCF92DF92EF92FF920F931F937C
:10049000CF93DF93EC0184E2FE0111928A95E9F794
:1004A0000DE712E0E12CF12C40E050E02FEF3FEFA0
:1004B0007EE1F80180818617B9F0FFEFEF1AFF0A9D
:1004C000025E1F4F83E0E816F10499F73983288311
:1004D0005B834A83CE01DF91CF911F910F91FF90F3
:1004E000EF90DF90CF9008953397408150E0542FE4
:1004F000442731968081480F511D4C5F5F4FC9F0F2
:1005000090E020E030E07E9D60017F9DD00C1124C2
:10051000DE01A20FB31F2C0D3D1DF901E758FD4F61
:10052000208116962C939F5F292F30E024173507E2
:1005300078F320E030E0C1CF2F923F924F925F924C
:100540006F927F928F929F92AF92BF92CF92DF92E3
:10055000EF92FF920F931F93CF93DF935C016B0198
:1005600080917502882309F403C191E0980F90935C
:100570007502D50114968C93D6011197A430B1055C
:1005800008F4F9C0F5013396AA0DBB1D8FEF9191C8
:10059000891BEA17FB07D9F78C935FB6F894139879
:1005A0008AEC91E09F938F930E94AA070F900F907F
:1005B000C114D10409F45FC0E501CA0CDB1C04ECD2
:1005C00011E09EE1792E22EB222E21E0322E3EE731
:1005D000632E25C0909177029923F1F0943109F4AC
:1005E00072C0923009F46AC020917602222331F061
:1005F000215020937602222309F46DC0E091780205
:1006000021E0290F209377027E9EF0011124E90F4B
:10061000F11DE758FD4F8083CC15DD0561F17E01AA
:1006200089911F928F931F930F930E94AA07D7015E
:100630008C910E9414060F900F900F900F908E37A0
:1006400049F620917802233089F130E080917702D9
:1006500041E0480F90E040937702729EA001739EA4
:10066000500D1124840F951FFC01E758FD4F608247
:10067000CC15DD05A1F686ED91E00E94C007139A26
:100680005FBEF5018481DF91CF911F910F91FF90A3
:10069000EF90DF90CF90BF90AF909F908F907F9022
:1006A0006F905F904F903F902F9008951092780236
:1006B00080E090E041E020E030E0CDCF21E0280F65
:1006C000209376029BCF809178028F5F809378028F
:1006D00010927702A1CF80907802789C900111242B
:1006E000F901E90FF11DE758FD4F8083F901E75843
:1006F000FD4F4F01E180F12CFE2CEE248281E80EAB
:10070000F11CF4E0EF0EF11C3F922F920E94AA0719
:100710000F900F90E114F104B9F0412C80E090E0CB
:10072000F401E80FF91F80811F928F931F930F939D
:100730000E94AA074394842D90E00F900F900F9091
:100740000F908E159F0560F3FF92EF92AEEBB1E034
:10075000BF93AF930E94AA07809178028F5F809326
:100760007802109277020F900F900F900F9054CF55
:1007700092E081E0FCCE8FEFAA0DBB1D0DCF8F92D2
:100780009F92AF92BF92CF92DF92EF92FF920F9320
:100790001F93CF93DF93CDB7DEB7AC970FB6F89426
:1007A000DEBF0FBECDBF7C016B0188E0E4E2F1E06B
:1007B000DE01959601900D928A95E1F75B018EE03E
:1007C000A80EB11C82E090E00E9474068C018EE7B6
:1007D000D8018C931196BC9211971296AC921297F5
:1007E00080E113968C93139714961C92149788E0CB
:1007F000FE01B596159601900D928A95E1F78FEF5F
:10080000F80185878EEF86871786108AC114D10478
:10081000A1F040E050E080E020E030E0F801E20F9D
:10082000F31FD701A40FB51F9C91918B8F5F282FC9
:1008300030E0A9012C153D0588F3B6016E5E7F4FAF
:10084000C8010E949C02B82E89EF90E00197F1F751
:1008500000C000000E946D010E946D010E946D01A8
:10086000FE01319684E2DF011D928A95E9F72DE7BA
:10087000822E22E0922E60E070E08EE1F401908101
:10088000B91609F16F5F7F4FFEE18F0E911C633047
:100890007105A1F78F85823209F43EC0C801AC967C
:1008A0000FB6F894DEBF0FBECDBFDF91CF911F9181
:1008B0000F91FF90EF90DF90CF90BF90AF909F90FF
:1008C0008F900C940907F4013397408150E0542F26
:1008D000442731969081490F511D4C5F5F4F91F233
:1008E00090E020E030E0869F6001879FD00C1124CB
:1008F000E7E0F0E0EC0FFD1FE20FF31F2C0D3D1DB4
:1009000027583D4FD9012C9120839F5F292F30E03C
:100910002417350768F3B6CF8AED91E00E94C0072F
:10092000FF92EF928AEF91E09F938F930E94AA0724
:100930000F900F900F900F90B1CFCF92DF92EF9268
:10094000FF920F931F93CF93DF93CDB7DEB7A4979A
:100950000FB6F894DEBF0FBECDBF672B09F0AFC056
:100960009AE0D92E8E010F5F1F4FF8012D2D1192A5
:100970002A95E9F72EE7E22EE98285E08B8338E0BD
:10098000F32EFC8283E58E838DE48F8381E088875C
:1009900069E070E0C8010E949C02F8011192DA94AB
:1009A000E9F7E98284E08B83FC8281E48E8389E429
:1009B0008F8368E070E0C8010E949C02D82E87E017
:1009C00092E00E94C007FFE32DE083E0F150204059
:1009D0008040E1F700C000000E946D010E946D019F
:1009E0000E946D0184E2F80111928A95E9F76DE7A2
:1009F00072E000E010E040E050E02FEF3FEFEEE16A
:100A0000CE2EFB018081D81671F10F5F1F4F625E01
:100A10007F4F03301105A9F76F8591E02F3F3F4FBE
:100A200009F090E081E04930510508F446C0892B77
:100A300009F047C06F3F09F444C0E091D302F09140
:100A4000D4021182108280E0A4960FB6F894DEBF23
:100A50000FBECDBFDF91CF911F910F91FF90EF900F
:100A6000DF90CF9008953397408150E0542F442772
:100A700031968081480F511D4C5F5F4FD9F090E057
:100A800020E030E0C09E7001C19EF00C1124A7E070
:100A9000B0E0AC0FBD1FA20FB31F2E0D3F1DF9011B
:100AA000E758FD4F20812C939F5F292F30E02417BA
:100AB000350768F320E030E0A8CF80E0B8CF8FEFB3
:100AC000C3CF8CE192E00E94C007E091D302F09185
:100AD000D40284E090E0918380838FEFB5CFCF93F1
:100AE000DF93CDB7DEB72A970FB6F894DEBF0FBEFF
:100AF000CDBF892BA9F4CE0101962AE0FC01119209
:100B00002A95E9F72EE7298324E02B8328E02C831C
:100B100021E42E8329E42F8368E070E00E949C0288
:100B20002A960FB6F894DEBF0FBECDBFDF91CF91EE
:100B30000895EF92FF920F931F93CF93DF93CDB75A
:100B4000DEB72A970FB6F894DEBF0FBECDBF9E0169
:100B50002F5F3F4F79012AE0F70111922A95E9F7BB
:100B6000042F10E00C5F1F4F2EE729831A830B839D
:100B700028E02C83FC0120812E8381818F834423F4
:100B800041F0415050E04F5F5F4FCE0108960E9408
:100B9000A107B8016C5F7F4FC7010E949C022A9693
:100BA0000FB6F894DEBF0FBECDBFDF91CF911F917E
:100BB0000F91FF90EF900895CF93DF9300D000D076
:100BC000CDB7DEB7182F092FF89487E392E04B8357
:100BD0005C8369837A830E94C0070F931F9385E427
:100BE00092E09F938F930E94AA077A817F936981F5
:100BF0006F9384E592E09F938F930E94AA075C8194
:100C00005F934B814F9381E692E09F938F930E9475
:100C1000AA070FB6F894DEBF0FBECDBFFFCF80EAA4
:100C200084B983E58CBD08958EBD0DB407FEFDCF5C
:100C30008EB508959091C00095FFFCCF8093C600BB
:100C400008958091C00085FFFCCF8091C600089573
:100C50008CE08093C4001092C500E0ECF0E080814D
:100C60008260808388E18093C10086E08093C20027
:100C700008950E9417010E946A0080E090E00895A4
:100C80000E942806E3EEF2E080E191E09383828304
:100C900082E091E09183808383E691E09F938F933C
:100CA0001F921F921F9281E08F931F921F921F929B
:100CB0001F928CE791E09F938F930E94AA0714B82C
:100CC00011B815B812B88DB79EB70C960FB6F89438
:100CD0009EBF0FBE8DBF0C940F06FFCFEE0FFF1F00
:100CE0000590F491E02D0994CF93DF938230910524
:100CF00010F482E090E0E091E102F091E20220E065
:100D000030E0C0E0D0E0309711F1408151814817C8
:100D10005907C0F04817590761F4828193812097E1
:100D200019F09B838A832BC09093E2028093E102A7
:100D300026C02115310519F04217530718F49A01FE
:100D4000BE01DF01EF010280F381E02DDCCF211530
:100D5000310509F1281B390B2430310590F4129626
:100D60008D919C9113976115710521F0FB0193837F
:100D7000828304C09093E2028093E102FD013296E7
:100D800044C0FD01E20FF31F81939193225031097A
:100D90002D933C933AC02091DF023091E002232B47
:100DA00041F420912001309121013093E002209301
:100DB000DF0220911E0130911F012115310541F400
:100DC0002DB73EB74091220150912301241B350BD2
:100DD000E091DF02F091E002E217F307A0F42E1B8E
:100DE0003F0B2817390778F0AC014E5F5F4F24178F
:100DF000350748F04E0F5F1F5093E0024093DF022B
:100E00008193919302C0E0E0F0E0CF01DF91CF91B8
:100E100008950F931F93CF93DF93009709F48CC02D
:100E2000FC013297138212820091E1021091E202DA
:100E30000115110581F420813181820F931F2091CA
:100E4000DF023091E0022817390779F5F093E002CC
:100E5000E093DF0271C0D80140E050E0AE17BF0759
:100E600050F412962D913C911397AD012115310547
:100E700009F1D901F3CF9D01DA0133832283608127
:100E80007181860F971F8217930769F4EC012881FF
:100E90003981260F371F2E5F3F4F318320838A8190
:100EA0009B8193838283452B29F4F093E202E093A4
:100EB000E10242C01396FC93EE931297ED01499123
:100EC00059919E01240F351FE217F30771F48081B9
:100ED0009181840F951F029611969C938E93828127
:100EE000938113969C938E931297E0E0F0E0D801E3
:100EF00012968D919C911397009719F0F8018C012F
:100F0000F6CF8D919C9198012E5F3F4F820F931FDA
:100F10002091DF023091E0022817390769F43097F9
:100F200029F41092E2021092E10202C013821282AE
:100F30001093E0020093DF02DF91CF911F910F9198
:100F40000895FB01DC0102C001900D924150504018
:100F5000D8F70895A0E0B0E0E0EBF7E00C947E0A4B
:100F6000AE014B5F5F4FFA0161917191AF018091CA
:100F7000E5029091E6020E94F007E2E00C949A0AE2
:100F80000F931F93CF93DF93E091E502F091E60278
:100F9000238121FF1BC08C01D0E0C0E0F8018191CA
:100FA0008F016091E5027091E602DB011896ED91E8
:100FB000FC911997882331F00995892B79F3DFEF9C
:100FC000CFEFECCF8AE00995892B19F08FEF9FEFD7
:100FD00002C08D2F9C2FDF91CF911F910F9108950B
:100FE000ACE0B0E0E6EFF7E00C946E0A7C016B0138
:100FF0008A01FC0117821682838181FFBDC1CE0167
:1010000001964C01F7019381F60193FD859193FFC1
:1010100081916F01882309F4ABC1853239F493FDC6
:10102000859193FF81916F01853229F4B70190E09A
:101030000E94D809E7CF512C312C20E02032A0F4B7
:101040008B3269F030F4803259F0833269F42061D8
:101050002CC08D3239F0803339F4216026C02260F3
:10106000246023C0286021C027FD27C030ED380F41
:101070003A3078F426FF06C0FAE05F9E300D112466
:10108000532E13C08AE0389E300D1124332E206277
:101090000CC08E3221F426FD6BC1206406C08C3654
:1010A00011F4206802C0883641F4F60193FD859161
:1010B00093FF81916F018111C1CF982F9F7D95542E
:1010C000933028F40C5F1F4FFFE3F9830DC0833684
:1010D00031F0833771F0833509F05BC022C0F8012D
:1010E000808189830E5F1F4F44244394512C540107
:1010F00015C03801F2E06F0E711CF801A080B180BC
:1011000026FF03C0652D70E002C06FEF7FEFC501C1
:101110002C870E94CD092C0183012C852F77222E4C
:1011200017C03801F2E06F0E711CF801A080B18089
:1011300026FF03C0652D70E002C06FEF7FEFC50191
:101140002C870E94C2092C012C852068222E830145
:1011500023FC1BC0832D90E048165906B0F4B7015C
:1011600080E290E00E94D8093A94F4CFF50127FC80
:10117000859127FE81915F01B70190E00E94D80917
:1011800031103A94F1E04F1A51084114510471F7AB
:10119000E5C0843611F0893639F5F80127FF07C01C
:1011A00060817181828193810C5F1F4F08C06081D3
:1011B0007181882777FD8095982F0E5F1F4F2F76BE
:1011C000722E97FF09C090958095709561957F4F1D
:1011D0008F4F9F4F2068722E2AE030E0A4010E94BA
:1011E000100AA82EA81844C0853729F42F7EB22EE5
:1011F0002AE030E025C0F22FF97FBF2E8F36C1F0F4
:1012000018F4883579F0B4C0803719F0883721F0A8
:10121000AFC02F2F2061B22EB4FE0DC08B2D846085
:10122000B82E09C024FF0AC09F2F9660B92E06C0B1
:1012300028E030E005C020E130E002C020E132E0EB
:10124000F801B7FE07C060817181828193810C5FD4
:101250001F4F06C06081718180E090E00E5F1F4FDC
:10126000A4010E94100AA82EA818FB2DFF777F2E3C
:1012700076FE0BC0372D3E7FA51450F474FE0AC0D5
:1012800072FC08C0372D3E7E05C0BA2C372D03C036
:10129000BA2C01C0B52C34FF0DC0FE01EA0DF11DC2
:1012A0008081803311F4397E09C032FF06C0B394C7
:1012B000B39404C0832F867809F0B39433FD13C030
:1012C00030FF06C05A2CB31418F4530C5B18B32C1F
:1012D000B31468F4B70180E290E03C870E94D8091B
:1012E000B3943C85F5CFB31410F43B1801C0312CF6
:1012F00034FF12C0B70180E390E03C870E94D80918
:101300003C8532FF17C031FD03C088E790E002C082
:1013100088E590E0B7010CC0832F867859F031FF43
:1013200002C08BE201C080E237FD8DE2B70190E0A0
:101330000E94D809A51438F4B70180E390E00E9418
:10134000D8095A94F7CFAA94F401EA0DF11D8081CF
:10135000B70190E00E94D809A110F5CF332009F41D
:1013600051CEB70180E290E00E94D8093A94F6CFBE
:10137000F7018681978102C08FEF9FEF2C96E2E103
:101380000C948A0AFC010590615070400110D8F756
:10139000809590958E0F9F1F0895FC0161507040BD
:1013A00001900110D8F7809590958E0F9F1F08959A
:1013B0000F931F93CF93DF93FB01238121FD03C084
:1013C0008FEF9FEF28C022FF16C0468157812481EE
:1013D00035814217530744F4A081B1819D012F5FED
:1013E0003F4F318320838C93268137812F5F3F4F7E
:1013F0003783268310C0EB01092F182F0084F18555
:10140000E02D0995892BE1F68E819F8101969F83BE
:101410008E83812F902FDF91CF911F910F9108958F
:10142000FA01AA27283051F1203181F1E8946F9315
:101430006E7F6E5F7F4F8F4F9F4FAF4FB1E03ED0BB
:10144000B4E03CD0670F781F891F9A1FA11D680F59
:10145000791F8A1F911DA11D6A0F711D811D911D8C
:10146000A11D20D009F468943F912AE0269F112401
:101470003019305D3193DEF6CF010895462F477065
:10148000405D4193B3E00FD0C9F7F6CF462F4F70C0
:10149000405D4A3318F0495D31FD4052419302D01E
:1014A000A9F7EACFB4E0A6959795879577956795C4
:1014B000BA95C9F700976105710508959B01AC01C4
:1014C0000A2E06945795479537952795BA95C9F7EB
:1014D000620F731F841F951FA01D08952F923F92C6
:1014E0004F925F926F927F928F929F92AF92BF9234
:1014F000CF92DF92EF92FF920F931F93CF93DF93E0
:10150000CDB7DEB7CA1BDB0B0FB6F894DEBF0FBE3C
:10151000CDBF09942A88398848885F846E847D8489
:101520008C849B84AA84B984C884DF80EE80FD808B
:101530000C811B81AA81B981CE0FD11D0FB6F89401
:10154000DEBF0FBECDBFED01089510E0CFE3D0E0C8
:1015500004C0FE010E946E062196C034D107C9F76F
:04156000F894FFCF2D
:1015640054010000000100000000000021060000FA
:1015740000000002000000001A0600000000000045
:10158400E9022000000000000000FFFF7372632FD7
:101594006D61696E2E63004641494C454420544FA9
:1015A40020434F4E4E45435420544F204E455457EC
:1015B4004F524B007B20226572726F72223A2030A8
:1015C400207D005361742046656220313020303123
:1015D4003A30383A3332203230313800494E4954A7
:1015E40027442054454C454D45545259204B4552AF
:1015F4004E454C205645522E2025642E25642E251A
:101604006420282564290A4255494C443A2025730C
:101614000A003C4D4F44454D3E2052582000282599
:1016240064290A00252E325820003C4D4F44454D74
:101634003E20545820003C3C3C003C4D4F44454D1A
:101644003E204E4F54204A4F494E454420544F208B
:1016540041204E4554574F524B00094449454420BC
:101664004F4E3A25730A003C4D4F44454D3E20539E
:101674004541524348494E472E2E2E003C4D4F447F
:10168400454D3E20434F4E4E454354494F4E205402
:10169400494D454F5554006B65726E656C5F7061C2
:1016A4006E69633A003E3E20726561736F6E3A2044
:1016B40025730A003E3E2066696C653A2025730A4C
:0E16C400003E3E206C696E653A2025640A00E7
:00000001FF
