:100000000C9440000C9468000C9468000C946800F8
:100010000C9468000C9468000C9468000C946800C0
:100020000C9468000C9468000C9468000C946800B0
:100030000C9468000C94BF000C9468000C94680049
:100040000C9468000C9468000C9468000C94680090
:100050000C9468000C9468000C9468000C94680080
:100060000C9468000C9468000C9468000C94680070
:100070000C9468000C9468000C946800620A8F0A63
:1000800011241FBECFEFD0E1DEBFCDBF13E0A0E053
:10009000B1E0EEE4FBE102C005900D92AA31B10798
:1000A000D9F713E0AAE1B3E001C01D92A139B1076D
:1000B000E1F710E0CFE3D0E004C02197FE010E94F9
:1000C000900ACE33D107C9F70E945B0A0C949A0DAF
:1000D0000C940000CF93DF9381B1896081B981E0F6
:1000E00082B984B18E6184B985B1856085B981E8B2
:1000F00093E00E944701E0918303F091840360E064
:1001000070E080E090E00995CEE1D1E01CC08091E4
:1001100001018F93809100018F93DF93CF930E9411
:100120009F0A47E350E068E271E083E391E00E94B8
:10013000FE090F900F900F900F9087EA91E60197BC
:10014000F1F700C00000E0918503F0918603099566
:100150008F3F91F08091810390918203892BB9F6B2
:10016000E0918903F0918A0362E070E080910001E0
:10017000909101010995E1CFDF91CF9108951F92F0
:100180000F920FB60F9211242F933F934F935F93CB
:100190006F938F939F93F89480911D0390911E030A
:1001A00020911F033091200340911B0350911C03A9
:1001B0004F5F5F4F483E63E05607C9F090931E03C0
:1001C00080931D0350931C0340931B033093200323
:1001D00020931F0378949F918F916F915F914F911E
:1001E0003F912F910F900FBE0F901F901895019681
:1001F000A9014F5F5F4F8C33910549F090931E0327
:1002000080931D0310921C0310921B03E3CF1092E6
:100210001E0310921D0310921C0310921B03509397
:10022000200340931F03D6CFE1E8F0E0808189608E
:10023000808387EE93E09093890080938800EFE6B7
:10024000F0E080818260808378940895CF93DF937B
:1002500000D000D000D0CDB7DEB786E0EBE1F3E010
:10026000DE01119601900D928A95E1F729813A817C
:100270004B815C816D817E8180E090E026960FB697
:10028000F894DEBF0FBECDBFDF91CF910895CF931D
:10029000DF930097B9F0EC010E945B0384E090E0EB
:1002A0009983888385E394E09B838A8380E693E047
:1002B0009D838C8383EC96E09F838E8385E497E017
:1002C00099878887DF91CF910895CF92DF92EF923F
:1002D000FF920F931F93CF930E94360A8E3759F1E6
:1002E000909123039923F9F0943109F452C092308C
:1002F00009F44AC020912203222331F02150209397
:100300002203222309F44DC0E091240321E0290FA8
:10031000209323032EE1E29FF0011124E90FF11D48
:10032000EB5DFC4F8083CF911F910F91FF90EF9079
:10033000DF90CF900895209124032330E9F030E03E
:10034000E091230341E04E0F8E2F90E04093230372
:100350004EE1429FF001439FF00D1124E80FF91F79
:10036000EB5DFC4F8EE78083CF911F910F91FF9043
:10037000EF90DF90CF9008951092240380E090E0FA
:1003800041E020E030E0E2CF21E0280F209322037B
:10039000BBCF809124038F5F8093240310922303AB
:1003A000C2CFC09024034EE1C49E90011124F901F4
:1003B000E90FF11DEB5DFC4F8083C9018B5D9C4F04
:1003C0006C01FC01018110E0102F00278281080FD1
:1003D000111D0C5F1F4F8FE292E09F938F930E943D
:1003E0009F0A0F900F9001151105D9F080E090E061
:1003F000C0E021E4E22E22E0F22EF601E80FF91F20
:1004000080811F928F93FF92EF920E949F0ACF5F8D
:100410008C2F90E00F900F900F900F908017910706
:1004200060F31F930F938BE392E09F938F930E944F
:100430009F0A809124038F5F8093240310922303EB
:100440000F900F900F900F906ECF2F923F924F9280
:100450005F926F927F928F929F92AF92BF92CF9254
:10046000DF92EF92FF920F931F93CF93DF93EC01F4
:1004700080912103882309F41BC191E0980F909388
:1004800021038C838E81282F332727FD30953F93BE
:100490008F938D81282F332727FD30953F938F939E
:1004A00087E492E09F938F930E949F0A8E010D5FD5
:1004B0001F4F5E018AE0A80EB11C0F900F900F90A5
:1004C0000F900F900F90FF24FA9451E4C52E52E044
:1004D000D52E4801D8018D918D011F928F93DF9207
:1004E000CF920E949F0AF4018081F81A0F900F901A
:1004F0000F900F900A151B0561F78FED91E00E9498
:10050000B50AF9865FB6F89413988E017E01F7E07C
:10051000EF0EF11C9EE1492E2FE2822E22E0922E58
:1005200031E4A32E32E0B32E4EE7342E25C0909155
:1005300023039923F1F0943109F465C0923009F452
:100540005DC020912203222331F021502093220309
:10055000222309F460C0E091240321E0290F2093B5
:1005600023034E9EF0011124E90FF11DEB5DFC4FBA
:1005700080830E151F0509F1D8018D918D010E9410
:10058000360A8E37A1F620912403233079F130E02A
:100590008091230341E0480F90E040932303429E63
:1005A000A001439E500D1124840F951FFC01EB5DAB
:1005B000FC4F30820E151F05F9F689850E946501F2
:1005C000139A5FBE8C81DF91CF911F910F91FF90A5
:1005D000EF90DF90CF90BF90AF909F908F907F90E3
:1005E0006F905F904F903F902F900895109224034A
:1005F00080E090E041E020E030E0CFCF21E0280F24
:1006000020932203A8CF809124038F5F809324033B
:1006100010922303AECF60902403469C90011124D6
:10062000F901E90FF11DEB5DFC4F8083F901EB5DF2
:10063000FC4F3F01C180D12CDC2CCC248281C80E20
:10064000D11CF4E0CF0ED11C9F928F920E949F0A82
:100650000F900F90C114D104B9F0212C80E090E0EC
:10066000F301E80FF91F80811F928F93BF92AF9221
:100670000E949F0A2394822D90E00F900F900F907C
:100680000F908C159D0560F3DF92CF92ABE3B2E043
:10069000BF93AF930E949F0A809124038F5F809342
:1006A0002403109223030F900F900F900F9061CFAF
:1006B00092E081E0E4CE9093800380937F030895DD
:1006C0006F927F928F929F92AF92BF92CF92DF9262
:1006D000EF92FF920F931F93CF93DF93BFB6F894DF
:1006E000189939C013989EE1D92E2FE2E22E22E00C
:1006F000F22EC1E4D2E00BE312E03EE7C32E1899DC
:1007000029C08FEF0E94360A8E37B1F190912303F2
:100710009923A9F3943109F454C0923009F44CC0E0
:1007200020912203222331F02150209322032223FF
:1007300009F44FC0E091240321E0290F2093230303
:10074000DE9EF0011124E90FF11DEB5DFC4F80836B
:10075000189BD7CF139ABFBE80E0DF91CF911F9136
:100760000F91FF90EF90DF90CF90BF90AF909F9050
:100770008F907F906F900895209124032330A1F0F3
:1007800030E0E091230341E04E0F8E2F90E0409344
:100790002303D29EF001D39EF00D1124E80FF91F20
:1007A000EB5DFC4FC082ABCF1092240380E090E061
:1007B00041E020E030E0EBCF21E0280F209322033E
:1007C000B9CF809124038F5F809324031092230379
:1007D00096CF60902403D69C90011124F901E90F73
:1007E000F11DEB5DFC4F8083C9018B5D9C4F3C018B
:1007F000FC018180912C982C88248281880E911C88
:10080000F4E08F0E911CFF92EF920E949F0A0F90CE
:100810000F9081149104B9F0A12C80E090E0F301D5
:10082000E80FF91F80811F928F93DF93CF930E946F
:100830009F0AA3948A2D90E00F900F900F900F9035
:100840008815990560F39F928F921F930F930E94D2
:100850009F0A809124038F5F8093240310922303C7
:100860000F900F900F900F904ACF2F923F924F9280
:100870005F926F927F928F929F92AF92BF92CF9230
:10088000DF92EF92FF920F931F93CF93DF93CDB739
:10089000DEB7A4970FB6F894DEBF0FBECDBF672BAF
:1008A00009F061C2CE0101964C018AE0D4011D928B
:1008B0008A95E9F78EE7898385E08B8388E08C83CE
:1008C00083E58E838DE48F8381E088878091210387
:1008D000882309F42EC191E0980F909321038D8312
:1008E0001F928DE48F931F9283E58F9387E492E0AC
:1008F0009F938F930E949F0A8E010C5F1F4F5E0192
:10090000BBE0AB0EB11C0F900F900F900F900F90AB
:100910000F90EE24EA94E1E4CE2EE2E0DE2EF80120
:10092000F1908F011F92FF92DF92CF920E949F0A57
:10093000EF180F900F900F900F900A151B0579F785
:100940008FED91E00E94B50AEA863FB6F8941398BD
:1009500084017E01F8E0EF0EF11C5EE1552E61E4AA
:10096000A62E62E0B62E7EE7472E25C09091230387
:100970009923F1F0943109F4ECC0923009F4E4C009
:1009800020912203222331F021502093220322239D
:1009900009F401C1E091240321E0290F20932303EE
:1009A0005E9EF0011124E90FF11DEB5DFC4F808389
:1009B0000E151F0511F1D8018D918D010E94360A87
:1009C0008E37A1F620912403233009F4B5C030E01E
:1009D0008091230341E0480F90E040932303529E0F
:1009E000A001539E500D1124840F951FFC01EB5D57
:1009F000FC4F40820E151F05F1F688850E94360ACD
:100A00008E3709F4AEC0909123039923F9F0943105
:100A100009F41DC1923009F415C12091220322234B
:100A200031F0215020932203222309F445C1E091A3
:100A3000240321E0290F209323032EE1E29FF001FC
:100A40001124E90FF11DEB5DFC4F80838A850E9424
:100A50006501139A3FBE8AE0F40111928A95E9F785
:100A60008EE7898384E08B8388E08C8381E48E83A6
:100A700089E48F83C4010E942502182F88E592E043
:100A80000E94B50AFFE32DE043E0F15020404040D2
:100A9000E1F700C000000E9460030E9460030E9412
:100AA000600394E2D4011D929A95E9F7A9E2B3E0BC
:100AB00060E070E040E050E08FEF9FEF0EE12C919E
:100AC000121709F4CCC06F5F7F4F5E9663307105DB
:100AD000B1F73F8521E0019609F020E081E049303F
:100AE000510508F480E0822B09F03FC13F3F09F433
:100AF0003CC1E0917F03F09180031182108280E07D
:100B0000A4960FB6F894DEBF0FBECDBFDF91CF9194
:100B10001F910F91FF90EF90DF90CF90BF90AF901B
:100B20009F908F907F906F905F904F903F902F900D
:100B3000089592E081E0D1CE1092240380E090E00D
:100B400041E020E030E049CF21E0280F209322034C
:100B500021CF809124038F5F80932403109223037D
:100B600027CF20912403233009F464C030E0809122
:100B7000230341E0480F90E0409323034EE1429F5E
:100B8000F001439FF00D1124E80FF91FEB5DFC4FBE
:100B90008EE780835BCF60902403569C90011124E4
:100BA000F901E90FF11DEB5DFC4F8083F901EB5D6D
:100BB000FC4F3F01C180D12CDC2CCC248281C80E9B
:100BC000D11CF4E0CF0ED11CAFE2B2E0BF93AF93E3
:100BD0000E949F0A0F900F90C114D104B9F0212CEC
:100BE00080E090E0F301E80FF91F80811F928F935E
:100BF000BF92AF920E949F0A2394822D90E00F90A3
:100C00000F900F900F908C159D0560F3DF92CF929F
:100C1000ABE3B2E0BF93AF930E949F0A809124039D
:100C20008F5F80932403109223030F900F900F90F7
:100C30000F90BECE1092240380E090E041E020E0CF
:100C400030E09ACF21E0280F20932203F0CE80914C
:100C500024038F5F8093240310922303F7CEFD01BA
:100C60003397408150E0542F442731968081480FBC
:100C7000511D4C5F5F4FE9F090E020E030E0069FAF
:100C80006001079FD00C112487E0E82EF12CEC0EB8
:100C9000FD1EE20EF31E2C0D3D1DF901EB5DFC4F18
:100CA0008081F70180839F5F292F30E0241735076B
:100CB00058F380E090E007CF209124034EE1249F79
:100CC00090011124F901E90FF11DEB5DFC4F8083C8
:100CD000C9018B5D9C4F6C01DC0111960C91119741
:100CE00010E0102F002712968C91080F111D0C5F39
:100CF0001F4F8FE292E09F938F930E949F0A0F9065
:100D00000F9001151105D9F080E090E0B12C21E49D
:100D1000E22E22E0F22EF601E80FF91F80811F92E9
:100D20008F93FF92EF920E949F0AB3948B2D90E0D5
:100D30000F900F900F900F908017910760F31F9303
:100D40000F938BE392E09F938F930E949F0A809171
:100D500024038F5F80932403109223030F900F903E
:100D60000F900F9073CE8FEFCBCE8DE692E00E9466
:100D7000B50AE0917F03F091800384E090E09183D5
:100D800080838FEFBDCECF93DF93CDB7DEB72A97A9
:100D90000FB6F894DEBF0FBECDBF892B99F4CE01FC
:100DA00001962AE0FC0111922A95E9F72EE72983A2
:100DB00024E02B8328E02C8321E42E8329E42F8355
:100DC0000E9425022A960FB6F894DEBF0FBECDBF53
:100DD000DF91CF910895CF92DF92EF92FF920F9320
:100DE0001F93CF93DF93EC0184E2FE0111928A9569
:100DF000E9F709E213E0E12CF12C40E050E02FEF9D
:100E00003FEF7EE1F80180818617B9F0FFEFEF1A1E
:100E1000FF0A025E1F4F83E0E816F10499F7398359
:100E200028835B834A83CE01DF91CF911F910F917D
:100E3000FF90EF90DF90CF9008953397408150E07E
:100E4000542F442731968081480F511D4C5F5F4FCE
:100E5000C9F090E020E030E07E9D60017F9DD00CE5
:100E60001124DE01A20FB31F2C0D3D1DF901EB5D16
:100E7000FC4F208116962C939F5F292F30E024177A
:100E8000350778F320E030E0C1CFAF92BF92CF9228
:100E9000DF92EF92FF920F931F93CF93DF935C014A
:100EA0007B016B018EE0C80ED11CC60199279F9370
:100EB0008F931F92DF9288E892E09F938F930E9416
:100EC0009F0A89EA92E09F938F930E949F0A8DB7B1
:100ED0009EB708960FB6F8949EBF0FBE8DBFE11463
:100EE000F104B9F0E501EA0CFB1C01E412E0999170
:100EF000292F332727FD30953F939F931F930F93FF
:100F00000E949F0A0F900F900F900F90CE15DF0553
:100F100071F7DF92CF928EEC92E09F938F930E94B5
:100F20009F0ABF92AF9283ED92E09F938F930E94AE
:100F30009F0A8DB79EB708960FB6F8949EBF0FBE56
:100F40008DBFDF91CF911F910F91FF90EF90DF90B8
:100F5000CF90BF90AF9008952F923F924F925F92A3
:100F60006F927F928F929F92AF92BF92CF92DF92B9
:100F7000EF92FF920F931F93CF93DF9300D01F92B6
:100F8000CDB7DEB75C01762E80912103882309F46A
:100F9000F1C191E0980F90932103D50114968C93A1
:100FA000149716968C911697282F332727FD309586
:100FB0003F938F9315968C91282F332727FD3095DB
:100FC0003F938F9387E492E09F938F930E949F0AB1
:100FD0002501B3E04B0E511C6501EAE0CE0ED11C99
:100FE0000F900F900F900F900F900F9099249A945C
:100FF00001E412E07201D2018D912D011F928F93B5
:101000001F930F930E949F0AF7018081981A0F90F7
:101010000F900F900F904C145D0461F78FED91E0ED
:101020000E94B50AD50119969C92BFB7B983F8946E
:1010300013987501F5013796FB83EA836EE1662EFE
:101040007FE2272E72E0372E01E412E0EEE75E2EFB
:1010500027C0909123039923F1F0943109F4E8C05B
:10106000923009F4E0C020912203222331F0215074
:1010700020932203222309F430C1E091240321E0CC
:10108000290F209323036E9EF0011124E90FF11D17
:10109000EB5DFC4F80838A819B81E816F90621F184
:1010A000D7018D917D010E94360A8E3791F62091ED
:1010B0002403233009F4AFC030E08091230341E0E2
:1010C000480F90E040932303629EA001639E500D61
:1010D0001124840F951FFC01EB5DFC4F50828A8127
:1010E0009B81E816F906E1F6772009F45FC0072D29
:1010F00010E0095F1F4F0A0D1B1D9EE1392E21E4F0
:10110000E22E22E0F22E3BE3432E32E0532E4EE756
:10111000242E27C0909123039923F1F0943109F4F0
:1011200072C0923009F46AC020912203222331F068
:10113000215020932203222309F482C0E09124034A
:1011400021E0290F209323033E9EF0011124E90F93
:10115000F11DEB5DFC4F80838A819B818017910795
:1011600029F1AA81BB818D91BB83AA830E94360A93
:101170008E3781F6209124032330C1F130E0809135
:10118000230341E0480F90E040932303329EA001E7
:10119000339E500D1124840F951FFC01EB5DFC4F15
:1011A00020828A819B8180179107D9F6D5011996F3
:1011B0008C910E946501139AB981BFBFF5018481AA
:1011C0000F900F900F90DF91CF911F910F91FF9093
:1011D000EF90DF90CF90BF90AF909F908F907F90D7
:1011E0006F905F904F903F902F900895109224033E
:1011F00080E090E041E020E030E0C6CF21E0280F21
:10120000209322039BCF809124038F5F809324033C
:1012100010922303A1CF1092240380E090E041E0DC
:1012200020E030E04FCF21E0280F2093220325CF8C
:10123000809124038F5F80932403109223032BCF8C
:1012400060902403369C90011124F901E90FF11DEF
:10125000EB5DFC4F8083F901EB5DFC4F3F01C180EA
:10126000D12CDC2CCC248281C80ED11CF4E0CF0E12
:10127000D11CAFE2B2E0BF93AF930E949F0A0F90E0
:101280000F90C114D104B9F0912C80E090E0F301EB
:10129000E80FF91F80811F928F93FF92EF920E94B7
:1012A0009F0A9394892D90E00F900F900F900F90CC
:1012B0008C159D0560F3DF92CF925F924F920E9452
:1012C0009F0A809124038F5F80932403109223034D
:1012D0000F900F900F900F903FCF80902403689C49
:1012E00090011124F901E90FF11DEB5DFC4F8083A2
:1012F000F901EB5DFC4F4F01C180D12CDC2CCC24DB
:101300008281C80ED11CF4E0CF0ED11C3F922F92E7
:101310000E949F0A0F900F90C114D104B9F0412C84
:1013200080E090E0F401E80FF91F80811F928F9315
:101330001F930F930E949F0A4394842D90E00F9077
:101340000F900F900F908C159D0560F3DF92CF9258
:10135000ABE3B2E0BF93AF930E949F0A8091240356
:101360008F5F80932403109223030F900F900F90B0
:101370000F9091CE92E081E00ECEEF92FF921F93FC
:10138000CF93DF93CDB7DEB72A970FB6F894DEBFC1
:101390000FBECDBF142F9E012F5F3F4F79012AE072
:1013A000F70111922A95E9F7242F30E02C5F3F4F87
:1013B0004EE749833A832B8328E02C83FC0120816C
:1013C0002E8381818F83112349F04FEF410F50E02D
:1013D0004F5F5F4FCE0108960E94960A612FC701AA
:1013E0000E94AC072A960FB6F894DEBF0FBECDBFA1
:1013F000DF91CF911F91FF90EF900895CF93DF93EE
:1014000000D000D0CDB7DEB7182F092FF89482EEA8
:1014100092E04B835C8369837A830E94B50A0F93C1
:101420001F9380EF92E09F938F930E949F0A7A818F
:101430007F9369816F938FEF92E09F938F930E94C8
:101440009F0A5C815F934B814F938CE093E09F9365
:101450008F930E949F0A0FB6F894DEBF0FBECDBFD8
:10146000FFCF80EA84B983E58CBD08958EBD0DB4AD
:1014700007FEFDCF8EB508959091C00095FFFCCF7B
:101480008093C60008958091C00085FFFCCF8091B5
:10149000C60008958CE08093C4001092C500E0EC73
:1014A000F0E080818260808388E18093C10086E0E3
:1014B0008093C20008950E9414010E946A0080E097
:1014C00090E008950E944A0AEBE8F3E080E191E0A1
:1014D0009383828382E091E09183808380EE91E028
:1014E0009F938F931F921F921F9281E08F931F9261
:1014F0001F921F921F9289EF91E09F938F930E94FA
:101500009F0A14B811B815B812B88DB79EB70C96CB
:101510000FB6F8949EBF0FBE8DBF0C94310AFFCF5B
:10152000EE0FFF1F0590F491E02D0994FB01DC0103
:1015300002C001900D9241505040D8F70895A0E0AC
:10154000B0E0E5EAFAE00C94730DAE014B5F5F4F3B
:10155000FA0161917191AF0180918D0390918E0399
:101560000E94E50AE2E00C948F0D0F931F93CF9336
:10157000DF93E0918D03F0918E03238121FF1BC047
:101580008C01D0E0C0E0F80181918F0160918D0362
:1015900070918E03DB011896ED91FC9119978823C9
:1015A00031F00995892B79F3DFEFCFEFECCF8AE0AB
:1015B0000995892B19F08FEF9FEF02C08D2F9C2F7B
:1015C000DF91CF911F910F910895ACE0B0E0EBEE69
:1015D000FAE00C94630D7C016B018A01FC01178217
:1015E0001682838181FFBDC1CE0101964C01F701B6
:1015F0009381F60193FD859193FF81916F0188237B
:1016000009F4ABC1853239F493FD859193FF819143
:101610006F01853229F4B70190E00E94CD0CE7CF2D
:10162000512C312C20E02032A0F48B3269F030F4C0
:10163000803259F0833269F420612CC08D3239F048
:10164000803339F4216026C02260246023C02860E2
:1016500021C027FD27C030ED380F3A3078F426FF3F
:1016600006C0FAE05F9E300D1124532E13C08AE0AD
:10167000389E300D1124332E20620CC08E3221F49E
:1016800026FD6BC1206406C08C3611F4206802C0B0
:10169000883641F4F60193FD859193FF81916F01A6
:1016A0008111C1CF982F9F7D9554933028F40C5F02
:1016B0001F4FFFE3F9830DC0833631F0833771F09C
:1016C000833509F05BC022C0F801808189830E5FF9
:1016D0001F4F44244394512C540115C03801F2E0AB
:1016E0006F0E711CF801A080B18026FF03C0652D2C
:1016F00070E002C06FEF7FEFC5012C870E94C20C23
:101700002C0183012C852F77222E17C03801F2E09F
:101710006F0E711CF801A080B18026FF03C0652DFB
:1017200070E002C06FEF7FEFC5012C870E94B70CFD
:101730002C012C852068222E830123FC1BC0832DC5
:1017400090E048165906B0F4B70180E290E00E949C
:10175000CD0C3A94F4CFF50127FC859127FE8191B9
:101760005F01B70190E00E94CD0C31103A94F1E096
:101770004F1A51084114510471F7E5C0843611F035
:10178000893639F5F80127FF07C0608171818281B0
:1017900093810C5F1F4F08C060817181882777FD9E
:1017A0008095982F0E5F1F4F2F76722E97FF09C0DE
:1017B00090958095709561957F4F8F4F9F4F2068D2
:1017C000722E2AE030E0A4010E94050DA82EA81870
:1017D00044C0853729F42F7EB22E2AE030E025C0A0
:1017E000F22FF97FBF2E8F36C1F018F4883579F0CB
:1017F000B4C0803719F0883721F0AFC02F2F206197
:10180000B22EB4FE0DC08B2D8460B82E09C024FF0B
:101810000AC09F2F9660B92E06C028E030E005C0B0
:1018200020E130E002C020E132E0F801B7FE07C05D
:1018300060817181828193810C5F1F4F06C060813E
:10184000718180E090E00E5F1F4FA4010E94050DA2
:10185000A82EA818FB2DFF777F2E76FE0BC0372D04
:101860003E7FA51450F474FE0AC072FC08C0372DE8
:101870003E7E05C0BA2C372D03C0BA2C01C0B52C52
:1018800034FF0DC0FE01EA0DF11D8081803311F49B
:10189000397E09C032FF06C0B394B39404C0832FCD
:1018A000867809F0B39433FD13C030FF06C05A2C7C
:1018B000B31418F4530C5B18B32CB31468F4B701C9
:1018C00080E290E03C870E94CD0CB3943C85F5CF3C
:1018D000B31410F43B1801C0312C34FF12C0B7010F
:1018E00080E390E03C870E94CD0C3C8532FF17C01E
:1018F00031FD03C088E790E002C088E590E0B701C1
:101900000CC0832F867859F031FF02C08BE201C0F2
:1019100080E237FD8DE2B70190E00E94CD0CA51466
:1019200038F4B70180E390E00E94CD0C5A94F7CFD1
:10193000AA94F401EA0DF11D8081B70190E00E94A4
:10194000CD0CA110F5CF332009F451CEB70180E2C0
:1019500090E00E94CD0C3A94F6CFF70186819781F2
:1019600002C08FEF9FEF2C96E2E10C947F0DFC01FB
:101970000590615070400110D8F7809590958E0FBA
:101980009F1F0895FC016150704001900110D8F72D
:10199000809590958E0F9F1F08950F931F93CF935F
:1019A000DF93FB01238121FD03C08FEF9FEF28C050
:1019B00022FF16C046815781248135814217530783
:1019C00044F4A081B1819D012F5F3F4F318320837B
:1019D0008C93268137812F5F3F4F3783268310C03A
:1019E000EB01092F182F0084F185E02D0995892B33
:1019F000E1F68E819F8101969F838E83812F902FA8
:101A0000DF91CF911F910F910895FA01AA272830F5
:101A100051F1203181F1E8946F936E7F6E5F7F4FBB
:101A20008F4F9F4FAF4FB1E03ED0B4E03CD0670F37
:101A3000781F891F9A1FA11D680F791F8A1F911D8A
:101A4000A11D6A0F711D811D911DA11D20D009F4DA
:101A500068943F912AE0269F11243019305D31931C
:101A6000DEF6CF010895462F4770405D4193B3E005
:101A70000FD0C9F7F6CF462F4F70405D4A3318F0AC
:101A8000495D31FD4052419302D0A9F7EACFB4E05D
:101A9000A6959795879577956795BA95C9F7009715
:101AA0006105710508959B01AC010A2E06945795B6
:101AB000479537952795BA95C9F7620F731F841F0D
:101AC000951FA01D08952F923F924F925F926F92A3
:101AD0007F928F929F92AF92BF92CF92DF92EF92BE
:101AE000FF920F931F93CF93DF93CDB7DEB7CA1B3F
:101AF000DB0B0FB6F894DEBF0FBECDBF09942A886A
:101B0000398848885F846E847D848C849B84AA8411
:101B1000B984C884DF80EE80FD800C811B81AA819E
:101B2000B981CE0FD11D0FB6F894DEBF0FBECDBF69
:101B3000ED01089510E0CFE3D0E004C0FE010E9463
:0E1B4000900A2196C034D107C9F7F894FFCF60
:101B4E00500100000001000000000000430A0000E8
:101B5E0000000002000000003C0A000000003C559E
:101B6E005345523E202573007372632F6D61696E6B
:101B7E002E63004641494C454420544F20434F4E5E
:101B8E004E45435420544F204E4554574F524B0010
:101B9E007B68756D69643A302E31382C74656D70C2
:101BAE003A36352E332C6272696768743A66616C08
:101BBE0073652C6E6D65613A222447504747412C60
:101BCE003132333531392C343830372E3033382CDE
:101BDE004E2C30313133312E3030302C452C312CCF
:101BEE0030382C302E392C3534352E342C4D2C34B7
:101BFE00362E392C4D2C2C2A3437222C22696D7519
:101C0E00223A207B226572726F72223A2022646918
:101C1E0073636F6E6E6563746564227D7D0A0A0060
:101C2E00536174204665622031302030313A3038AD
:101C3E003A3332203230313800494E49542744204D
:101C4E0054454C454D45545259204B45524E454CEA
:101C5E00205645522E2025642E25642E25642028DC
:101C6E002564290A4255494C443A2025730A003C02
:101C7E004D4F44454D3E2052582000282564290AD8
:101C8E0000252E325820003C4D4F44454D3E2054E9
:101C9E0058202563256320003C4D4F44454D3E2082
:101CAE00534541524348494E472E2E2E003C4D4F30
:101CBE0044454D3E20434F4E4E454354494F4E20D2
:101CCE0054494D454F5554003C4D4F44454D3E20D3
:101CDE0054582037452025302E32582025302E32AC
:101CEE00582031302030332000303020303020303A
:101CFE0030203030203030203030204646204646CE
:101D0E002046462046452030302030302000282501
:101D1E006429003C4D4F44454D3E204D53472025F0
:101D2E0073006B65726E656C5F70616E69633A000D
:101D3E003E3E20726561736F6E3A2025730A003E37
:101D4E003E2066696C653A2025730A003E3E206C83
:0A1D5E00696E653A2025640A000052
:00000001FF
